{
  "_format": "hh-sol-artifact-1",
  "contractName": "TokenExchange",
  "sourceName": "contracts/TokenExchange.sol",
  "abi": [
    {
      "inputs": [
        {
          "internalType": "address",
          "name": "_tokenA",
          "type": "address"
        },
        {
          "internalType": "address",
          "name": "_tokenB",
          "type": "address"
        },
        {
          "internalType": "uint256",
          "name": "_rateNum",
          "type": "uint256"
        },
        {
          "internalType": "uint256",
          "name": "_rateDenom",
          "type": "uint256"
        }
      ],
      "stateMutability": "nonpayable",
      "type": "constructor"
    },
    {
      "inputs": [],
      "name": "InsufficientLiquidity",
      "type": "error"
    },
    {
      "inputs": [],
      "name": "ReentrancyGuardReentrantCall",
      "type": "error"
    },
    {
      "anonymous": false,
      "inputs": [
        {
          "indexed": true,
          "internalType": "address",
          "name": "user",
          "type": "address"
        },
        {
          "indexed": false,
          "internalType": "uint256",
          "name": "amountIn",
          "type": "uint256"
        },
        {
          "indexed": false,
          "internalType": "uint256",
          "name": "amountOut",
          "type": "uint256"
        },
        {
          "indexed": false,
          "internalType": "uint256",
          "name": "rateNum",
          "type": "uint256"
        },
        {
          "indexed": false,
          "internalType": "uint256",
          "name": "rateDenom",
          "type": "uint256"
        }
      ],
      "name": "SwapExecuted",
      "type": "event"
    },
    {
      "inputs": [
        {
          "internalType": "uint256",
          "name": "amountIn",
          "type": "uint256"
        },
        {
          "internalType": "uint256",
          "name": "minAmountOut",
          "type": "uint256"
        }
      ],
      "name": "exchange",
      "outputs": [
        {
          "internalType": "uint256",
          "name": "",
          "type": "uint256"
        }
      ],
      "stateMutability": "nonpayable",
      "type": "function"
    },
    {
      "inputs": [],
      "name": "owner",
      "outputs": [
        {
          "internalType": "address",
          "name": "",
          "type": "address"
        }
      ],
      "stateMutability": "view",
      "type": "function"
    },
    {
      "inputs": [],
      "name": "rateDenom",
      "outputs": [
        {
          "internalType": "uint256",
          "name": "",
          "type": "uint256"
        }
      ],
      "stateMutability": "view",
      "type": "function"
    },
    {
      "inputs": [],
      "name": "rateNum",
      "outputs": [
        {
          "internalType": "uint256",
          "name": "",
          "type": "uint256"
        }
      ],
      "stateMutability": "view",
      "type": "function"
    },
    {
      "inputs": [],
      "name": "tokenA",
      "outputs": [
        {
          "internalType": "contract IERC20",
          "name": "",
          "type": "address"
        }
      ],
      "stateMutability": "view",
      "type": "function"
    },
    {
      "inputs": [],
      "name": "tokenB",
      "outputs": [
        {
          "internalType": "contract IERC20",
          "name": "",
          "type": "address"
        }
      ],
      "stateMutability": "view",
      "type": "function"
    },
    {
      "inputs": [
        {
          "internalType": "uint256",
          "name": "newNum",
          "type": "uint256"
        },
        {
          "internalType": "uint256",
          "name": "newDenom",
          "type": "uint256"
        }
      ],
      "name": "updateRate",
      "outputs": [],
      "stateMutability": "nonpayable",
      "type": "function"
    }
  ],
  "bytecode": "0x60c060405234801561001057600080fd5b5060405161076738038061076783398101604081905261002f916100d6565b6001600055806100855760405162461bcd60e51b815260206004820152601360248201527f496e76616c69642064656e6f6d696e61746f7200000000000000000000000000604482015260640160405180910390fd5b600180546001600160a01b031916331790556001600160a01b039384166080529190921660a052600291909155600355610119565b80516001600160a01b03811681146100d157600080fd5b919050565b600080600080608085870312156100ec57600080fd5b6100f5856100ba565b9350610103602086016100ba565b6040860151606090960151949790965092505050565b60805160a0516106166101516000396000818160f701528181610290015261041601526000818160a3015261038401526106166000f3fe608060405234801561001057600080fd5b506004361061007d5760003560e01c80635f64b55b1161005b5780635f64b55b146100f25780638da5cb5b14610119578063d4b7eac31461012c578063da438bfa1461013f57600080fd5b80630a87a619146100825780630fc63d101461009e578063405abb41146100dd575b600080fd5b61008b60035481565b6040519081526020015b60405180910390f35b6100c57f000000000000000000000000000000000000000000000000000000000000000081565b6040516001600160a01b039091168152602001610095565b6100f06100eb36600461051a565b610148565b005b6100c57f000000000000000000000000000000000000000000000000000000000000000081565b6001546100c5906001600160a01b031681565b61008b61013a36600461051a565b6101e4565b61008b60025481565b6001546001600160a01b031633146101935760405162461bcd60e51b81526020600482015260096024820152682737ba1037bbb732b960b91b60448201526064015b60405180910390fd5b600081116101d95760405162461bcd60e51b815260206004820152601360248201527224b73b30b634b2103232b737b6b4b730ba37b960691b604482015260640161018a565b600291909155600355565b60006101ee6104f0565b600083116102355760405162461bcd60e51b8152602060048201526014602482015273125b9d985b1a59081a5b9c1d5d08185b5bdd5b9d60621b604482015260640161018a565b6000600254846102459190610552565b600354909150600081610259600282610569565b610263908561058b565b61026d9190610569565b6040516370a0823160e01b81523060048201529091506000906001600160a01b037f000000000000000000000000000000000000000000000000000000000000000016906370a0823190602401602060405180830381865afa1580156102d7573d6000803e3d6000fd5b505050506040513d601f19601f820116820180604052508101906102fb919061059e565b90508181101561031e5760405163bb55fd2760e01b815260040160405180910390fd5b858210156103625760405162461bcd60e51b815260206004820152601160248201527014db1a5c1c1859d948195e18d959591959607a1b604482015260640161018a565b6040516323b872dd60e01b8152336004820152306024820152604481018890527f00000000000000000000000000000000000000000000000000000000000000006001600160a01b0316906323b872dd906064016020604051808303816000875af11580156103d5573d6000803e3d6000fd5b505050506040513d601f19601f820116820180604052508101906103f991906105b7565b5060405163a9059cbb60e01b8152336004820152602481018390527f00000000000000000000000000000000000000000000000000000000000000006001600160a01b03169063a9059cbb906044016020604051808303816000875af1158015610467573d6000803e3d6000fd5b505050506040513d601f19601f8201168201806040525081019061048b91906105b7565b50600254600354604080518a81526020810186905290810192909252606082015233907f6e897e83b2ea962118c2abaeb4ffb85a1a63da2c8f1880660079b88983900d849060800160405180910390a250925050506104ea6001600055565b92915050565b60026000540361051357604051633ee5aeb560e01b815260040160405180910390fd5b6002600055565b6000806040838503121561052d57600080fd5b50508035926020909101359150565b634e487b7160e01b600052601160045260246000fd5b80820281158282048414176104ea576104ea61053c565b60008261058657634e487b7160e01b600052601260045260246000fd5b500490565b808201808211156104ea576104ea61053c565b6000602082840312156105b057600080fd5b5051919050565b6000602082840312156105c957600080fd5b815180151581146105d957600080fd5b939250505056fea26469706673582212207498698f801d57dd35fc28d334c75b48c75b963dc1fbbd30e6f1cac060d850f264736f6c634300081c0033",
  "linkReferences": {},
  "deployedLinkReferences": {}
}